{
  "_format": "hh-sol-artifact-1",
  "contractName": "CryptoDevToken",
  "sourceName": "contracts/CryptoDevToken.sol",
  "abi": [
    {
      "inputs": [
        {
          "internalType": "address",
          "name": "_cryptoDevsContract",
          "type": "address"
        }
      ],
      "stateMutability": "nonpayable",
      "type": "constructor"
    },
    {
      "anonymous": false,
      "inputs": [
        {
          "indexed": true,
          "internalType": "address",
          "name": "owner",
          "type": "address"
        },
        {
          "indexed": true,
          "internalType": "address",
          "name": "spender",
          "type": "address"
        },
        {
          "indexed": false,
          "internalType": "uint256",
          "name": "value",
          "type": "uint256"
        }
      ],
      "name": "Approval",
      "type": "event"
    },
    {
      "anonymous": false,
      "inputs": [
        {
          "indexed": true,
          "internalType": "address",
          "name": "previousOwner",
          "type": "address"
        },
        {
          "indexed": true,
          "internalType": "address",
          "name": "newOwner",
          "type": "address"
        }
      ],
      "name": "OwnershipTransferred",
      "type": "event"
    },
    {
      "anonymous": false,
      "inputs": [
        {
          "indexed": true,
          "internalType": "address",
          "name": "from",
          "type": "address"
        },
        {
          "indexed": true,
          "internalType": "address",
          "name": "to",
          "type": "address"
        },
        {
          "indexed": false,
          "internalType": "uint256",
          "name": "value",
          "type": "uint256"
        }
      ],
      "name": "Transfer",
      "type": "event"
    },
    {
      "stateMutability": "payable",
      "type": "fallback"
    },
    {
      "inputs": [
        {
          "internalType": "address",
          "name": "owner",
          "type": "address"
        },
        {
          "internalType": "address",
          "name": "spender",
          "type": "address"
        }
      ],
      "name": "allowance",
      "outputs": [
        {
          "internalType": "uint256",
          "name": "",
          "type": "uint256"
        }
      ],
      "stateMutability": "view",
      "type": "function"
    },
    {
      "inputs": [
        {
          "internalType": "address",
          "name": "spender",
          "type": "address"
        },
        {
          "internalType": "uint256",
          "name": "amount",
          "type": "uint256"
        }
      ],
      "name": "approve",
      "outputs": [
        {
          "internalType": "bool",
          "name": "",
          "type": "bool"
        }
      ],
      "stateMutability": "nonpayable",
      "type": "function"
    },
    {
      "inputs": [
        {
          "internalType": "address",
          "name": "account",
          "type": "address"
        }
      ],
      "name": "balanceOf",
      "outputs": [
        {
          "internalType": "uint256",
          "name": "",
          "type": "uint256"
        }
      ],
      "stateMutability": "view",
      "type": "function"
    },
    {
      "inputs": [],
      "name": "claim",
      "outputs": [],
      "stateMutability": "nonpayable",
      "type": "function"
    },
    {
      "inputs": [],
      "name": "decimals",
      "outputs": [
        {
          "internalType": "uint8",
          "name": "",
          "type": "uint8"
        }
      ],
      "stateMutability": "view",
      "type": "function"
    },
    {
      "inputs": [
        {
          "internalType": "address",
          "name": "spender",
          "type": "address"
        },
        {
          "internalType": "uint256",
          "name": "subtractedValue",
          "type": "uint256"
        }
      ],
      "name": "decreaseAllowance",
      "outputs": [
        {
          "internalType": "bool",
          "name": "",
          "type": "bool"
        }
      ],
      "stateMutability": "nonpayable",
      "type": "function"
    },
    {
      "inputs": [
        {
          "internalType": "address",
          "name": "spender",
          "type": "address"
        },
        {
          "internalType": "uint256",
          "name": "addedValue",
          "type": "uint256"
        }
      ],
      "name": "increaseAllowance",
      "outputs": [
        {
          "internalType": "bool",
          "name": "",
          "type": "bool"
        }
      ],
      "stateMutability": "nonpayable",
      "type": "function"
    },
    {
      "inputs": [],
      "name": "maxTotalSupply",
      "outputs": [
        {
          "internalType": "uint256",
          "name": "",
          "type": "uint256"
        }
      ],
      "stateMutability": "view",
      "type": "function"
    },
    {
      "inputs": [
        {
          "internalType": "uint256",
          "name": "amount",
          "type": "uint256"
        }
      ],
      "name": "mint",
      "outputs": [],
      "stateMutability": "payable",
      "type": "function"
    },
    {
      "inputs": [],
      "name": "name",
      "outputs": [
        {
          "internalType": "string",
          "name": "",
          "type": "string"
        }
      ],
      "stateMutability": "view",
      "type": "function"
    },
    {
      "inputs": [],
      "name": "owner",
      "outputs": [
        {
          "internalType": "address",
          "name": "",
          "type": "address"
        }
      ],
      "stateMutability": "view",
      "type": "function"
    },
    {
      "inputs": [],
      "name": "renounceOwnership",
      "outputs": [],
      "stateMutability": "nonpayable",
      "type": "function"
    },
    {
      "inputs": [],
      "name": "symbol",
      "outputs": [
        {
          "internalType": "string",
          "name": "",
          "type": "string"
        }
      ],
      "stateMutability": "view",
      "type": "function"
    },
    {
      "inputs": [
        {
          "internalType": "uint256",
          "name": "",
          "type": "uint256"
        }
      ],
      "name": "tokenIdsClaimed",
      "outputs": [
        {
          "internalType": "bool",
          "name": "",
          "type": "bool"
        }
      ],
      "stateMutability": "view",
      "type": "function"
    },
    {
      "inputs": [],
      "name": "tokenPrice",
      "outputs": [
        {
          "internalType": "uint256",
          "name": "",
          "type": "uint256"
        }
      ],
      "stateMutability": "view",
      "type": "function"
    },
    {
      "inputs": [],
      "name": "tokensPerNFT",
      "outputs": [
        {
          "internalType": "uint256",
          "name": "",
          "type": "uint256"
        }
      ],
      "stateMutability": "view",
      "type": "function"
    },
    {
      "inputs": [],
      "name": "totalSupply",
      "outputs": [
        {
          "internalType": "uint256",
          "name": "",
          "type": "uint256"
        }
      ],
      "stateMutability": "view",
      "type": "function"
    },
    {
      "inputs": [
        {
          "internalType": "address",
          "name": "to",
          "type": "address"
        },
        {
          "internalType": "uint256",
          "name": "amount",
          "type": "uint256"
        }
      ],
      "name": "transfer",
      "outputs": [
        {
          "internalType": "bool",
          "name": "",
          "type": "bool"
        }
      ],
      "stateMutability": "nonpayable",
      "type": "function"
    },
    {
      "inputs": [
        {
          "internalType": "address",
          "name": "from",
          "type": "address"
        },
        {
          "internalType": "address",
          "name": "to",
          "type": "address"
        },
        {
          "internalType": "uint256",
          "name": "amount",
          "type": "uint256"
        }
      ],
      "name": "transferFrom",
      "outputs": [
        {
          "internalType": "bool",
          "name": "",
          "type": "bool"
        }
      ],
      "stateMutability": "nonpayable",
      "type": "function"
    },
    {
      "inputs": [
        {
          "internalType": "address",
          "name": "newOwner",
          "type": "address"
        }
      ],
      "name": "transferOwnership",
      "outputs": [],
      "stateMutability": "nonpayable",
      "type": "function"
    },
    {
      "inputs": [],
      "name": "withdraw",
      "outputs": [],
      "stateMutability": "nonpayable",
      "type": "function"
    },
    {
      "stateMutability": "payable",
      "type": "receive"
    }
  ],
  "bytecode": "0x60806040523480156200001157600080fd5b506040516200260e3803806200260e8339818101604052810190620000379190620002d4565b6040518060400160405280601081526020017f43727970746f2044657620546f6b656e000000000000000000000000000000008152506040518060400160405280600281526020017f43440000000000000000000000000000000000000000000000000000000000008152508160039080519060200190620000bb9291906200020d565b508060049080519060200190620000d49291906200020d565b505050620000f7620000eb6200013f60201b60201c565b6200014760201b60201c565b80600660006101000a81548173ffffffffffffffffffffffffffffffffffffffff021916908373ffffffffffffffffffffffffffffffffffffffff16021790555050620003b3565b600033905090565b6000600560009054906101000a900473ffffffffffffffffffffffffffffffffffffffff16905081600560006101000a81548173ffffffffffffffffffffffffffffffffffffffff021916908373ffffffffffffffffffffffffffffffffffffffff1602179055508173ffffffffffffffffffffffffffffffffffffffff168173ffffffffffffffffffffffffffffffffffffffff167f8be0079c531659141344cd1fd0a4f28419497f9722a3daafe3b4186f6b6457e060405160405180910390a35050565b8280546200021b9062000334565b90600052602060002090601f0160209004810192826200023f57600085556200028b565b82601f106200025a57805160ff19168380011785556200028b565b828001600101855582156200028b579182015b828111156200028a5782518255916020019190600101906200026d565b5b5090506200029a91906200029e565b5090565b5b80821115620002b95760008160009055506001016200029f565b5090565b600081519050620002ce8162000399565b92915050565b600060208284031215620002e757600080fd5b6000620002f784828501620002bd565b91505092915050565b60006200030d8262000314565b9050919050565b600073ffffffffffffffffffffffffffffffffffffffff82169050919050565b600060028204905060018216806200034d57607f821691505b602082108114156200036457620003636200036a565b5b50919050565b7f4e487b7100000000000000000000000000000000000000000000000000000000600052602260045260246000fd5b620003a48162000300565b8114620003b057600080fd5b50565b61224b80620003c36000396000f3fe60806040526004361061012e5760003560e01c80635f3690af116100ab57806395d89b411161006f57806395d89b41146103da578063a0712d6814610405578063a457c2d714610421578063a9059cbb1461045e578063dd62ed3e1461049b578063f2fde38b146104d857610135565b80635f3690af146102f357806370a0823114610330578063715018a61461036d5780637ff9b596146103845780638da5cb5b146103af57610135565b8063313ce567116100f2578063313ce56714610232578063395093511461025d5780633ccfd60b1461029a5780634e71d92d146102b15780635afcc2f5146102c857610135565b806306fdde0314610137578063095ea7b31461016257806318160ddd1461019f57806323b872dd146101ca5780632ab4d0521461020757610135565b3661013557005b005b34801561014357600080fd5b5061014c610501565b6040516101599190611980565b60405180910390f35b34801561016e57600080fd5b50610189600480360381019061018491906115d9565b610593565b6040516101969190611965565b60405180910390f35b3480156101ab57600080fd5b506101b46105b6565b6040516101c19190611b82565b60405180910390f35b3480156101d657600080fd5b506101f160048036038101906101ec919061158a565b6105c0565b6040516101fe9190611965565b60405180910390f35b34801561021357600080fd5b5061021c6105ef565b6040516102299190611b82565b60405180910390f35b34801561023e57600080fd5b506102476105fd565b6040516102549190611b9d565b60405180910390f35b34801561026957600080fd5b50610284600480360381019061027f91906115d9565b610606565b6040516102919190611965565b60405180910390f35b3480156102a657600080fd5b506102af61063d565b005b3480156102bd57600080fd5b506102c6610707565b005b3480156102d457600080fd5b506102dd610996565b6040516102ea9190611b82565b60405180910390f35b3480156102ff57600080fd5b5061031a60048036038101906103159190611615565b6109a2565b6040516103279190611965565b60405180910390f35b34801561033c57600080fd5b5061035760048036038101906103529190611525565b6109c2565b6040516103649190611b82565b60405180910390f35b34801561037957600080fd5b50610382610a0a565b005b34801561039057600080fd5b50610399610a1e565b6040516103a69190611b82565b60405180910390f35b3480156103bb57600080fd5b506103c4610a29565b6040516103d19190611921565b60405180910390f35b3480156103e657600080fd5b506103ef610a53565b6040516103fc9190611980565b60405180910390f35b61041f600480360381019061041a9190611615565b610ae5565b005b34801561042d57600080fd5b50610448600480360381019061044391906115d9565b610bc5565b6040516104559190611965565b60405180910390f35b34801561046a57600080fd5b50610485600480360381019061048091906115d9565b610c3c565b6040516104929190611965565b60405180910390f35b3480156104a757600080fd5b506104c260048036038101906104bd919061154e565b610c5f565b6040516104cf9190611b82565b60405180910390f35b3480156104e457600080fd5b506104ff60048036038101906104fa9190611525565b610ce6565b005b60606003805461051090611d17565b80601f016020809104026020016040519081016040528092919081815260200182805461053c90611d17565b80156105895780601f1061055e57610100808354040283529160200191610589565b820191906000526020600020905b81548152906001019060200180831161056c57829003601f168201915b5050505050905090565b60008061059e610d6a565b90506105ab818585610d72565b600191505092915050565b6000600254905090565b6000806105cb610d6a565b90506105d8858285610f3d565b6105e3858585610fc9565b60019150509392505050565b69021e19e0c9bab240000081565b60006012905090565b600080610611610d6a565b90506106328185856106238589610c5f565b61062d9190611bdf565b610d72565b600191505092915050565b610645611241565b600061064f610a29565b9050600047905060008273ffffffffffffffffffffffffffffffffffffffff168260405161067c9061190c565b60006040518083038185875af1925050503d80600081146106b9576040519150601f19603f3d011682016040523d82523d6000602084013e6106be565b606091505b5050905080610702576040517f08c379a00000000000000000000000000000000000000000000000000000000081526004016106f990611a82565b60405180910390fd5b505050565b60003390506000600660009054906101000a900473ffffffffffffffffffffffffffffffffffffffff1673ffffffffffffffffffffffffffffffffffffffff166370a08231836040518263ffffffff1660e01b81526004016107699190611921565b60206040518083038186803b15801561078157600080fd5b505afa158015610795573d6000803e3d6000fd5b505050506040513d601f19601f820116820180604052508101906107b9919061163e565b9050600081116107fe576040517f08c379a00000000000000000000000000000000000000000000000000000000081526004016107f590611b22565b60405180910390fd5b6000805b82811015610930576000600660009054906101000a900473ffffffffffffffffffffffffffffffffffffffff1673ffffffffffffffffffffffffffffffffffffffff16632f745c5986846040518363ffffffff1660e01b815260040161086992919061193c565b60206040518083038186803b15801561088157600080fd5b505afa158015610895573d6000803e3d6000fd5b505050506040513d601f19601f820116820180604052508101906108b9919061163e565b90506007600082815260200190815260200160002060009054906101000a900460ff1661091c576001836108ed9190611bdf565b925060016007600083815260200190815260200160002060006101000a81548160ff0219169083151502179055505b50808061092890611d49565b915050610802565b5060008111610974576040517f08c379a000000000000000000000000000000000000000000000000000000000815260040161096b90611a42565b60405180910390fd5b61099133678ac7230489e800008361098c9190611c35565b6112bf565b505050565b678ac7230489e8000081565b60076020528060005260406000206000915054906101000a900460ff1681565b60008060008373ffffffffffffffffffffffffffffffffffffffff1673ffffffffffffffffffffffffffffffffffffffff168152602001908152602001600020549050919050565b610a12611241565b610a1c6000611416565b565b66038d7ea4c6800081565b6000600560009054906101000a900473ffffffffffffffffffffffffffffffffffffffff16905090565b606060048054610a6290611d17565b80601f0160208091040260200160405190810160405280929190818152602001828054610a8e90611d17565b8015610adb5780601f10610ab057610100808354040283529160200191610adb565b820191906000526020600020905b815481529060010190602001808311610abe57829003601f168201915b5050505050905090565b60008166038d7ea4c68000610afa9190611c35565b905080341015610b3f576040517f08c379a0000000000000000000000000000000000000000000000000000000008152600401610b36906119c2565b60405180910390fd5b6000670de0b6b3a764000083610b559190611c35565b905069021e19e0c9bab240000081610b6b6105b6565b610b759190611bdf565b1115610bb6576040517f08c379a0000000000000000000000000000000000000000000000000000000008152600401610bad90611ac2565b60405180910390fd5b610bc033826112bf565b505050565b600080610bd0610d6a565b90506000610bde8286610c5f565b905083811015610c23576040517f08c379a0000000000000000000000000000000000000000000000000000000008152600401610c1a90611b42565b60405180910390fd5b610c308286868403610d72565b60019250505092915050565b600080610c47610d6a565b9050610c54818585610fc9565b600191505092915050565b6000600160008473ffffffffffffffffffffffffffffffffffffffff1673ffffffffffffffffffffffffffffffffffffffff16815260200190815260200160002060008373ffffffffffffffffffffffffffffffffffffffff1673ffffffffffffffffffffffffffffffffffffffff16815260200190815260200160002054905092915050565b610cee611241565b600073ffffffffffffffffffffffffffffffffffffffff168173ffffffffffffffffffffffffffffffffffffffff161415610d5e576040517f08c379a0000000000000000000000000000000000000000000000000000000008152600401610d55906119e2565b60405180910390fd5b610d6781611416565b50565b600033905090565b600073ffffffffffffffffffffffffffffffffffffffff168373ffffffffffffffffffffffffffffffffffffffff161415610de2576040517f08c379a0000000000000000000000000000000000000000000000000000000008152600401610dd990611b02565b60405180910390fd5b600073ffffffffffffffffffffffffffffffffffffffff168273ffffffffffffffffffffffffffffffffffffffff161415610e52576040517f08c379a0000000000000000000000000000000000000000000000000000000008152600401610e4990611a02565b60405180910390fd5b80600160008573ffffffffffffffffffffffffffffffffffffffff1673ffffffffffffffffffffffffffffffffffffffff16815260200190815260200160002060008473ffffffffffffffffffffffffffffffffffffffff1673ffffffffffffffffffffffffffffffffffffffff168152602001908152602001600020819055508173ffffffffffffffffffffffffffffffffffffffff168373ffffffffffffffffffffffffffffffffffffffff167f8c5be1e5ebec7d5bd14f71427d1e84f3dd0314c0f7b2291e5b200ac8c7c3b92583604051610f309190611b82565b60405180910390a3505050565b6000610f498484610c5f565b90507fffffffffffffffffffffffffffffffffffffffffffffffffffffffffffffffff8114610fc35781811015610fb5576040517f08c379a0000000000000000000000000000000000000000000000000000000008152600401610fac90611a22565b60405180910390fd5b610fc28484848403610d72565b5b50505050565b600073ffffffffffffffffffffffffffffffffffffffff168373ffffffffffffffffffffffffffffffffffffffff161415611039576040517f08c379a000000000000000000000000000000000000000000000000000000000815260040161103090611ae2565b60405180910390fd5b600073ffffffffffffffffffffffffffffffffffffffff168273ffffffffffffffffffffffffffffffffffffffff1614156110a9576040517f08c379a00000000000000000000000000000000000000000000000000000000081526004016110a0906119a2565b60405180910390fd5b6110b48383836114dc565b60008060008573ffffffffffffffffffffffffffffffffffffffff1673ffffffffffffffffffffffffffffffffffffffff1681526020019081526020016000205490508181101561113a576040517f08c379a000000000000000000000000000000000000000000000000000000000815260040161113190611a62565b60405180910390fd5b8181036000808673ffffffffffffffffffffffffffffffffffffffff1673ffffffffffffffffffffffffffffffffffffffff16815260200190815260200160002081905550816000808573ffffffffffffffffffffffffffffffffffffffff1673ffffffffffffffffffffffffffffffffffffffff168152602001908152602001600020600082825401925050819055508273ffffffffffffffffffffffffffffffffffffffff168473ffffffffffffffffffffffffffffffffffffffff167fddf252ad1be2c89b69c2b068fc378daa952ba7f163c4a11628f55a4df523b3ef846040516112289190611b82565b60405180910390a361123b8484846114e1565b50505050565b611249610d6a565b73ffffffffffffffffffffffffffffffffffffffff16611267610a29565b73ffffffffffffffffffffffffffffffffffffffff16146112bd576040517f08c379a00000000000000000000000000000000000000000000000000000000081526004016112b490611aa2565b60405180910390fd5b565b600073ffffffffffffffffffffffffffffffffffffffff168273ffffffffffffffffffffffffffffffffffffffff16141561132f576040517f08c379a000000000000000000000000000000000000000000000000000000000815260040161132690611b62565b60405180910390fd5b61133b600083836114dc565b806002600082825461134d9190611bdf565b92505081905550806000808473ffffffffffffffffffffffffffffffffffffffff1673ffffffffffffffffffffffffffffffffffffffff168152602001908152602001600020600082825401925050819055508173ffffffffffffffffffffffffffffffffffffffff16600073ffffffffffffffffffffffffffffffffffffffff167fddf252ad1be2c89b69c2b068fc378daa952ba7f163c4a11628f55a4df523b3ef836040516113fe9190611b82565b60405180910390a3611412600083836114e1565b5050565b6000600560009054906101000a900473ffffffffffffffffffffffffffffffffffffffff16905081600560006101000a81548173ffffffffffffffffffffffffffffffffffffffff021916908373ffffffffffffffffffffffffffffffffffffffff1602179055508173ffffffffffffffffffffffffffffffffffffffff168173ffffffffffffffffffffffffffffffffffffffff167f8be0079c531659141344cd1fd0a4f28419497f9722a3daafe3b4186f6b6457e060405160405180910390a35050565b505050565b505050565b6000813590506114f5816121e7565b92915050565b60008135905061150a816121fe565b92915050565b60008151905061151f816121fe565b92915050565b60006020828403121561153757600080fd5b6000611545848285016114e6565b91505092915050565b6000806040838503121561156157600080fd5b600061156f858286016114e6565b9250506020611580858286016114e6565b9150509250929050565b60008060006060848603121561159f57600080fd5b60006115ad868287016114e6565b93505060206115be868287016114e6565b92505060406115cf868287016114fb565b9150509250925092565b600080604083850312156115ec57600080fd5b60006115fa858286016114e6565b925050602061160b858286016114fb565b9150509250929050565b60006020828403121561162757600080fd5b6000611635848285016114fb565b91505092915050565b60006020828403121561165057600080fd5b600061165e84828501611510565b91505092915050565b61167081611c8f565b82525050565b61167f81611ca1565b82525050565b600061169082611bb8565b61169a8185611bce565b93506116aa818560208601611ce4565b6116b381611df0565b840191505092915050565b60006116cb602383611bce565b91506116d682611e01565b604082019050919050565b60006116ee601783611bce565b91506116f982611e50565b602082019050919050565b6000611711602683611bce565b915061171c82611e79565b604082019050919050565b6000611734602283611bce565b915061173f82611ec8565b604082019050919050565b6000611757601d83611bce565b915061176282611f17565b602082019050919050565b600061177a602783611bce565b915061178582611f40565b604082019050919050565b600061179d602683611bce565b91506117a882611f8f565b604082019050919050565b60006117c0601483611bce565b91506117cb82611fde565b602082019050919050565b60006117e3602083611bce565b91506117ee82612007565b602082019050919050565b6000611806602783611bce565b915061181182612030565b604082019050919050565b6000611829602583611bce565b91506118348261207f565b604082019050919050565b600061184c600083611bc3565b9150611857826120ce565b600082019050919050565b600061186f602483611bce565b915061187a826120d1565b604082019050919050565b6000611892602183611bce565b915061189d82612120565b604082019050919050565b60006118b5602583611bce565b91506118c08261216f565b604082019050919050565b60006118d8601f83611bce565b91506118e3826121be565b602082019050919050565b6118f781611ccd565b82525050565b61190681611cd7565b82525050565b60006119178261183f565b9150819050919050565b60006020820190506119366000830184611667565b92915050565b60006040820190506119516000830185611667565b61195e60208301846118ee565b9392505050565b600060208201905061197a6000830184611676565b92915050565b6000602082019050818103600083015261199a8184611685565b905092915050565b600060208201905081810360008301526119bb816116be565b9050919050565b600060208201905081810360008301526119db816116e1565b9050919050565b600060208201905081810360008301526119fb81611704565b9050919050565b60006020820190508181036000830152611a1b81611727565b9050919050565b60006020820190508181036000830152611a3b8161174a565b9050919050565b60006020820190508181036000830152611a5b8161176d565b9050919050565b60006020820190508181036000830152611a7b81611790565b9050919050565b60006020820190508181036000830152611a9b816117b3565b9050919050565b60006020820190508181036000830152611abb816117d6565b9050919050565b60006020820190508181036000830152611adb816117f9565b9050919050565b60006020820190508181036000830152611afb8161181c565b9050919050565b60006020820190508181036000830152611b1b81611862565b9050919050565b60006020820190508181036000830152611b3b81611885565b9050919050565b60006020820190508181036000830152611b5b816118a8565b9050919050565b60006020820190508181036000830152611b7b816118cb565b9050919050565b6000602082019050611b9760008301846118ee565b92915050565b6000602082019050611bb260008301846118fd565b92915050565b600081519050919050565b600081905092915050565b600082825260208201905092915050565b6000611bea82611ccd565b9150611bf583611ccd565b9250827fffffffffffffffffffffffffffffffffffffffffffffffffffffffffffffffff03821115611c2a57611c29611d92565b5b828201905092915050565b6000611c4082611ccd565b9150611c4b83611ccd565b9250817fffffffffffffffffffffffffffffffffffffffffffffffffffffffffffffffff0483118215151615611c8457611c83611d92565b5b828202905092915050565b6000611c9a82611cad565b9050919050565b60008115159050919050565b600073ffffffffffffffffffffffffffffffffffffffff82169050919050565b6000819050919050565b600060ff82169050919050565b60005b83811015611d02578082015181840152602081019050611ce7565b83811115611d11576000848401525b50505050565b60006002820490506001821680611d2f57607f821691505b60208210811415611d4357611d42611dc1565b5b50919050565b6000611d5482611ccd565b91507fffffffffffffffffffffffffffffffffffffffffffffffffffffffffffffffff821415611d8757611d86611d92565b5b600182019050919050565b7f4e487b7100000000000000000000000000000000000000000000000000000000600052601160045260246000fd5b7f4e487b7100000000000000000000000000000000000000000000000000000000600052602260045260246000fd5b6000601f19601f8301169050919050565b7f45524332303a207472616e7366657220746f20746865207a65726f206164647260008201527f6573730000000000000000000000000000000000000000000000000000000000602082015250565b7f45746865722073656e7420697320696e636f7272656374000000000000000000600082015250565b7f4f776e61626c653a206e6577206f776e657220697320746865207a65726f206160008201527f6464726573730000000000000000000000000000000000000000000000000000602082015250565b7f45524332303a20617070726f766520746f20746865207a65726f20616464726560008201527f7373000000000000000000000000000000000000000000000000000000000000602082015250565b7f45524332303a20696e73756666696369656e7420616c6c6f77616e6365000000600082015250565b7f596f75206861766520616c726561647920636c61696d656420616c6c2074686560008201527f20746f6b656e7300000000000000000000000000000000000000000000000000602082015250565b7f45524332303a207472616e7366657220616d6f756e742065786365656473206260008201527f616c616e63650000000000000000000000000000000000000000000000000000602082015250565b7f4661696c656420746f2073656e64204574686572000000000000000000000000600082015250565b7f4f776e61626c653a2063616c6c6572206973206e6f7420746865206f776e6572600082015250565b7f4578636565647320746865206d617820746f74616c20737570706c792061766160008201527f696c61626c652e00000000000000000000000000000000000000000000000000602082015250565b7f45524332303a207472616e736665722066726f6d20746865207a65726f20616460008201527f6472657373000000000000000000000000000000000000000000000000000000602082015250565b50565b7f45524332303a20617070726f76652066726f6d20746865207a65726f2061646460008201527f7265737300000000000000000000000000000000000000000000000000000000602082015250565b7f596f7520646f6e74206f776e20616e792043727970746f20446576204e46542760008201527f7300000000000000000000000000000000000000000000000000000000000000602082015250565b7f45524332303a2064656372656173656420616c6c6f77616e63652062656c6f7760008201527f207a65726f000000000000000000000000000000000000000000000000000000602082015250565b7f45524332303a206d696e7420746f20746865207a65726f206164647265737300600082015250565b6121f081611c8f565b81146121fb57600080fd5b50565b61220781611ccd565b811461221257600080fd5b5056fea264697066735822122085a0c6efffc84ab4389f309658fa38a3639ba827f95f145f4d6be711eddb9c6964736f6c63430008040033",
  "linkReferences": {},
  "deployedLinkReferences": {}
}